:020000040000FA
:100000000C94DE000C9406010C9406010C9406017D
:100010000C9406010C9406010C9406010C94060144
:100020000C9406010C9406010C9406010C94060134
:100030000C9406010C9406010C9406010C94060124
:100040000C949B060C9406010C9406010C9406017A
:100050000C9406010C9406010C9406010C94060104
:100060000C94E5060C940601000000002400270013
:100070002A0000000008000201000003040700003D
:100080000000000000000000000000000000000070
:10009000000000000000000000000000000001015E
:1000A000010101010101010101010202020202023A
:1000B0000202030303030303040404040505050506
:1000C00005060606060707070808080909090A0AB7
:1000D0000A0B0B0B0C0C0D0D0D0E0E0F0F1010114B
:1000E00011121213131414151516161718181919BE
:1000F0001A1B1B1C1D1D1E1F1F202122222324250D
:1001000026262728292A2A2B2C2D2E2F3031323330
:100110003435363738393A3B3C3D3E3F4041424426
:1001200045464748494B4C4D4E50515254555658F0
:10013000595A5C5D5E606163646667696A6C6D6F85
:100140007072737577787A7C7D7F818284868889E6
:100150008B8D8F91929496989A9C9EA0A2A4A6A80B
:10016000AAACAEB0B2B4B6B8BABCBFC1C3C5C7CAF8
:10017000CCCED1D3D5D7DADCDFE1E3E6E8EBEDF0A6
:10018000F2F5F7FAFCFF010204081020408001029A
:1001900004081020010204081020000000002500BF
:1001A00028002B00040404040404040402020202D4
:1001B00002020303030303030008D40A11241FBE31
:1001C000CFEFD8E0DEBFCDBF11E0A0E0B1E0E6EEBA
:1001D000F8E102C005900D92A039B107D9F722E0ED
:1001E000A0E9B1E001C01D92A036B207E1F710E02E
:1001F000CDEDD0E004C02197FE010E94340BCC3D30
:10020000D107C9F70E948C080C94660C0C9400006E
:100210008F929F92AF92BF92CF92DF92EF92FF9216
:10022000CF93209148023091490282179307E8F555
:100230004B01AA24BB24C82DC52ED62EE72EFF24A1
:10024000BC2DA42F20914E02222361F0829E4001FA
:100250001124C92D2C9D60011124BD2D249FF00176
:100260001124AF2FE0915402E0904F02F090500221
:1002700030915102E31323C09C01220F331F820FE0
:10028000931F8E0D9F1DE0915102E80FF92FF11D74
:10029000C083E0915202E80FF92FF11DB083209145
:1002A0005302820F911DFC01A083CF91FF90EF902C
:1002B000DF90CF90BF90AF909F908F900895880F60
:1002C000991F880F991F8E0D9F1D472F5527662751
:1002D0007727222349F030E0249F7001259FF00CFE
:1002E000349FF00C11244F2DE80FF92FF11D40839E
:1002F000CACFCF92DF92EF92FF920F931F939C0190
:10030000AAEFB5E00E94030BDC01CB019058AF4F80
:10031000BF4FCD01BB2797FDB095AB2F8E3F21E09E
:10032000920758F5282F8F3F910508F445C06EEFCE
:10033000681B862F30E02FEF682F70E090E080E0A0
:10034000CB0177276627D12CF12CE12C632B7D295B
:100350008E299F29022F10E030E020E0322F212F3C
:10036000102F0027602B712B822B932B1F910F9145
:10037000FF90EF90DF90CF9008958C3F23E092079D
:1003800068F48D3F22E0920728F432E0380F2FEF17
:1003900080E0D2CF2CEF281B3FEFFACF8A3F25E039
:1003A000920769F03AEF381B8B3F24E0920740F444
:1003B0008C5F3FEF20E0C0CF30E08FEFBDCF30E06B
:1003C00020E0FBCFAF92BF92CF92DF92EF92FF92ED
:1003D0000F931F93CF93DF936C017B018B01040F6D
:1003E000151FEB015E01AE18BF08C017D10759F009
:1003F0006991D601ED91FC910190F081E02DC6014B
:100400000995892B79F7C501DF91CF911F910F9144
:10041000FF90EF90DF90CF90BF90AF90089590E065
:10042000FC01EE58FF4F2491FC01EA57FE4F349136
:10043000FC01EC55FE4FE491EE23C9F0222339F084
:10044000233001F1A8F4213019F1223029F1F0E034
:10045000EE0FFF1FE656FE4FA591B4918FB7F894AB
:10046000EC91611126C030953E233C938FBF0895D7
:100470002730A9F02830C9F0243049F78091800056
:100480008F7D03C0809180008F7780938000DFCFC5
:1004900084B58F7784BDDBCF84B58F7DFBCF809112
:1004A000B0008F778093B000D2CF8091B0008F7D65
:1004B000F9CF3E2BDACFCF93DF9390E0FC01EA57E0
:1004C000FE4F24918C559E4FFC0184918823D1F0DE
:1004D00090E0880F991FFC01E859FF4FA591B49156
:1004E000FC01E656FE4FC591D49161110EC09FB735
:1004F000F8948C91E22FE0958E238C932881E2234F
:10050000E8839FBFDF91CF9108958FB7F894EC9166
:10051000E22BEC938FBFF6CF3FB7F89480912A027D
:1005200090912B02A0912C02B0912D0226B5A89B90
:1005300005C02F3F19F00196A11DB11D3FBFBA2F75
:10054000A92F982F8827BC01CD01620F711D811D35
:10055000911D42E0660F771F881F991F4A95D1F7BA
:1005600008950F931F93CF93DF93CDB7DEB72997ED
:100570000FB6F894DEBF0FBECDBF80914F029091B1
:100580005002892B09F47CC00E948C020091550214
:10059000109156022091570230915802601771074E
:1005A0008207930740F4609355027093560280933C
:1005B00057029093580200915502109156022091D3
:1005C000570230915802601B710B820B930B6C32F7
:1005D000714081059105C0F2F89480914A02909192
:1005E0004B029A838983E0914F02F0915002DF0120
:1005F00011968081898790914602E0915902F0918D
:100600005A0280915B02992309F445C09081982B8E
:1006100098879081809589238F838F818C8388E050
:100620008B8358856F8149853B812C8189819A8193
:10063000508347FD252F3A952083262F39F0441FFC
:1006400000C000006083000000C0F2CF38E04D9190
:1006500060830000019761F7F0935A02E09359021A
:1006600049873B832C839A83898378940E948C02E8
:1006700060935502709356028093570290935802EC
:1006800029960FB6F894DEBF0FBECDBFDF91CF9194
:100690001F910F9108959081982B98879081809554
:1006A00089238F838F818E8388E08D8358856F8126
:1006B00049853D812E8189819A81508347FD252F6F
:1006C00000C000C0208300C000C000C000C000C047
:1006D00060830000262F3A9541F0441F000000C0BF
:1006E00000C000C000C000C0E8CF38E04D9100C09D
:1006F000608300C0019709F7F0935A02E093590212
:1007000049873D832E83AFCF8F929F92AF92BF9246
:10071000CF92DF92EF92FF926B017C010E948C02DC
:100720004B015C01C114D104E104F104B9F00E9451
:100730008C02681979098A099B09683E7340810512
:10074000910580F321E0C21AD108E108F10888EE92
:10075000880E83E0981EA11CB11CE4CFFF90EF909F
:10076000DF90CF90BF90AF909F908F900895CF92E1
:10077000DF92EF92FF92CF93DF936B017C01D0E089
:10078000C0E08091480290914902C817D90778F4D7
:10079000B701A601CE010E9408010E94B1026EE1DC
:1007A00070E080E090E00E9484032196EACFDF9120
:1007B000CF91FF90EF90DF90CF9008951F93CF934C
:1007C000DF93C1E0C093BA01882399F1D091B800BA
:1007D0001091BA008091BC008A7B8093BC0060E0DD
:1007E00082E10E940F0260E083E10E940F021092FA
:1007F000FF01C09301021092000261E082E10E94B9
:100800000F0261E083E10E940F028091B9008E7FA8
:100810008093B9008091B9008D7F8093B90088E4FE
:100820008093B80085E48093BC001093BA00D09305
:10083000B800DF91CF911F9108952091DB01260F21
:100840003327331F21323105ECF42091FF01FC01E5
:1008500090E080E0243069F082E00895A091DB010F
:100860002191AC0145545E4FA40FB52FB11D2C93BF
:100870000196861798F38091DB01680F6093DB0186
:1008800080E0089581E0089508958FEF9FEF089527
:100890008FEF9FEF08958091B40190E0919581953D
:1008A00091090895CF92DF92EF92FF920F931F93D9
:1008B000CF93DF937C01CB018A012091B3012223E6
:1008C00089F0EB016B01C40ED51ECC15DD0569F076
:1008D0006991D701ED91FC910190F081E02DC70164
:1008E0000995F3CF642F0E941D04C801DF91CF91B9
:1008F0001F910F91FF90EF90DF90CF900895CF93CD
:10090000DF931F92CDB7DEB769832091B301222315
:10091000F9F02091B201203258F021E030E0FC01E2
:100920003383228390E080E00F90DF91CF91089590
:100930008091B101E82FF0E0EF56FE4F998190834E
:100940008F5F8093B1018093B20181E090E0ECCFA2
:1009500061E0CE0101960E941D04F7CFCF92DF9295
:10096000EF92FF920F931F93CF93DF93FC01C4810B
:1009700021E02093B301C09390011092B101109235
:10098000B2018385682B8EE292E00E947F04D091B1
:10099000B201D13208F092C00E948C026B017C013E
:1009A0008091FF01811165C082E08093FF0181E0A9
:1009B000809301028FEF8093FE0110922302D09367
:1009C0002202A1E9B1E0E2E0F2E080E0D81385C0C4
:1009D0001092240280912402CC0FC82BC0932402D1
:1009E00080910002813009F07CC0109200020E94C8
:1009F0008C026B017C01809124028093BB0080916A
:100A0000B6019091B701A091B801B091B901892BBD
:100A10008A2B8B2B99F00E948C020091B6011091C9
:100A2000B7012091B8013091B9016C197D098E0987
:100A30009F090617170728073907E0F18091BC00C6
:100A400083FDD9CF85EC8093BC000E948C026B01A2
:100A50007C018091FF01823009F445C08091FE0144
:100A60008F3F61F18091FE01803241F18091FE0162
:100A700025C08091B6019091B701A091B801B091C5
:100A8000B901892B8A2B8B2B09F48ACF0E948C0207
:100A90000091B6011091B7012091B8013091B901D0
:100AA0006C197D098E099F09061717072807390752
:100AB00008F076CF8091B5010E94DE031092B1015B
:100AC0001092B2011092B301DF91CF911F910F915B
:100AD000FF90EF90DF90CF9008959D9191938F5F5D
:100AE00075CF85EEB0CF8091B6019091B701A091FE
:100AF000B801B091B901892B8A2B8B2B09F4A9CFAE
:100B00000E948C020091B6011091B7012091B801AA
:100B10003091B9016C197D098E099F0906171707D5
:100B20002807390708F095CFC5CF089590E080E0F9
:100B300008950F931F93CF938C01C62F0E94AE048C
:100B40006C2F6460C8010E94AE046C2F6B7FC801DB
:100B50000E94AE0483EC90E00197F1F7CF911F91D2
:100B60000F9108950F931F93CF93DF938C01D62F8E
:100B7000C42F607F642B0E94990580E1D89FB0014B
:100B800011246C2BC801DF91CF911F910F910C9410
:100B9000990540E061E08AE392E00E94B2058BE3B0
:100BA0009FE10197F1F70895CF93DF93CDB7DEB7BB
:100BB00028970FB6F894DEBF0FBECDBF98E0E6E0F1
:100BC000F1E0DE01119601900D929A95E1F7909176
:100BD0004202961710F46FEF690F262F30E0220FB4
:100BE000331F41E050E04C0F5D1F240F351FF9010A
:100BF0006081680F606840E08AE392E028960FB653
:100C0000F894DEBF0FBECDBFDF91CF910C94B2053B
:100C100041E00E94B20581E090E008958F929F929A
:100C2000AF92BF92EF92FF920F931F93CF93DF93F8
:100C30004B015C018AE0E82EF12CD0E0C0E040914D
:100C40004A0250914B0270E060E080914F02909117
:100C500050020E945F0C8E018091480290914902DF
:100C60000817190740F4B501A401C8010E94080142
:100C70000D5F1F4FF1CF0E94B1026EE170E080E086
:100C800090E00E9484032196C330D105C1F681E033
:100C9000E81AF10891F6DF91CF911F910F91FF9023
:100CA000EF90BF90AF909F908F900895FC010190BE
:100CB0000020E9F73197AF01481B590BBC018AE3CB
:100CC00092E00C94E20185ED8093BC008091B60126
:100CD0009091B701A091B801B091B9010796A11DFB
:100CE000B11D23E0B695A795979587952A95D1F7DD
:100CF0002091BC0024FD03C01092FF010895409193
:100D0000B6015091B7016091B8017091B901452BBE
:100D1000462B472B69F30097A105B10541F02AE264
:100D20002A95F1F700C00197A109B109E1CF80919F
:100D3000B5010C94DE031F920F920FB60F9211248F
:100D40002F933F938F939F93AF93BF9380912602EE
:100D500090912702A0912802B0912902309125029A
:100D600023E0230F2D3758F50196A11DB11D2093C7
:100D700025028093260290932702A0932802B09325
:100D8000290280912A0290912B02A0912C02B0910D
:100D90002D020196A11DB11D80932A0290932B0272
:100DA000A0932C02B0932D02BF91AF919F918F9190
:100DB0003F912F910F900FBE0F901F90189526E82E
:100DC000230F0296A11DB11DD2CF1F920F920FB615
:100DD0000F9211242F933F934F935F936F937F93C1
:100DE0008F939F93AF93BF93EF93FF938091B9003D
:100DF000887F803609F44AC0F0F5883209F4A5C02E
:100E000018F5803109F499C0B8F4882309F4F5C0C5
:100E1000883009F492C0FF91EF91BF91AF919F91FB
:100E20008F917F916F915F914F913F912F910F9093
:100E30000FBE0F901F901895883109F486C080323C
:100E400051F78093FE0114C0803409F49BC040F434
:100E50008033B9F38833F9F68093FE0185ECAEC098
:100E6000803509F483C0883509F494C0883499F634
:100E70000E946306D0CF883909F48AC038F58837D4
:100E800029F050F4883611F0803729F683E08093FA
:100E9000FF011092FD0155C0883809F479C08039EE
:100EA00019F0803809F0B7CF8091FD01803208F049
:100EB0006FC0E091FD0181E08E0F8093FD01809174
:100EC000BB00F0E0E352FE4F80833BC0803B39F033
:100ED000D0F4803A09F477C0883A09F09CCF84E0D6
:100EE0008093FF011092DC011092DB01F0E0E0E062
:100EF00009958091DB0181110FC081E08093DB01B6
:100F00001092BB0109C0803C09F4A8CF883C09F4C9
:100F1000A5CF883B09F07FCFE091DC0181E08E0F07
:100F20008093DC01F0E0E554FE4F80818093BB00AC
:100F30009091DC018091DB0129C080912402809393
:100F4000BB0085EC8093BC0066CF9091230280911A
:100F50002202981758F5E091230281E08E0F8093CA
:100F60002302F0E0EE5FFD4F8081E9CFE0912302A4
:100F700081E08E0F809323028091BB00F0E0EE5F52
:100F8000FD4F808390912302809122029817C8F22E
:100F900085E8D8CFE091230281E08E0F8093230271
:100FA0008091BB00F0E0EE5FFD4F808380910102F5
:100FB00081115ECF81E08093000284EA8093BC00BF
:100FC0001092FF0128CF85EC8093BC001092FF01A6
:100FD0008091FD01803230F4E091FD01F0E0E352B8
:100FE000FE4F10826091FD0170E08DED91E0F0E028
:100FF000E0E009951092FD010ECF1092FE0138CF6E
:10100000109231021092300288EE93E0A0E0B0E03E
:101010008093320290933302A0933402B09335024E
:1010200082E191E090932F0280932E02109247026A
:1010300010924E02109255021092560210925702D0
:101040001092580281E080935402809351021092D2
:10105000520292E0909353028093460280E990E01E
:1010600090934B0280934A020E943A0B9093500255
:1010700080934F02009709F446C020E9FC011192C9
:101080002A95E9F780E390E0909349028093480223
:1010900086E090E090934D0280934C02809147024D
:1010A000882341F061E086E00E945B0260E086E018
:1010B0000E940F02EAEAF1E0E491F0E0EE0FFF1F78
:1010C000E656FE4F8591949190935A02809359026F
:1010D000ECE8F1E0E491E0935B0210923D021092A3
:1010E0003C0284E291E090933B0280933A0287E2D3
:1010F00080933E0284E18093430284E08093440223
:1011000010924502089510924B0210924A021092DA
:10111000490210924802BCCFCF93DF93CDB7DEB720
:101120002C970FB6F894DEBF0FBECDBF789484B570
:10113000826084BD84B5816084BD85B5826085BDD3
:1011400085B5816085BD80916E00816080936E0061
:101150001092810080918100826080938100809153
:101160008100816080938100809180008160809304
:1011700080008091B10084608093B1008091B000C4
:1011800081608093B00080917A00846080937A00BF
:1011900080917A00826080937A0080917A008160E9
:1011A00080937A0080917A00806880937A00109210
:1011B000C10080913F02886080933F0254E0F52E89
:1011C000F092420262E370E080E090E00E948403CB
:1011D000609145028AE392E00E94AE0468EE73E0FB
:1011E00080E090E00E94840360E38AE392E00E9442
:1011F00099050BE416E4C8010197F1F760E38AE36F
:1012000092E00E949905C8010197F1F760E38AE333
:1012100092E00E94990583E592E00197F1F760E280
:101220008AE392E00E94990560913F02606240E08B
:101230008AE392E00E94B205F092400240E06CE046
:101240008AE392E00E94B2050E94C90582E0809381
:10125000410240E066E08AE392E00E94B20540E08D
:1012600062E08AE392E00E94B2058BE39FE101977E
:10127000F1F780914C0290914D0297FD08C061E01A
:101280000E945B0260E080914C020E940F0281E0AC
:10129000809347020E94B10220914E02222341F125
:1012A00000914F02109150022150E9F030E050E0DF
:1012B00040E06FEF7FEF80E090E00E94E40AF801E9
:1012C00040914A0250914B02CF01801B910B841731
:1012D000950760F44081429FC001439F900D112407
:1012E00090833196EDCF30E020E0E9CF10924E02AE
:1012F00060E081E00E94D4058CE291E00E945606F5
:1013000061E082E00E94D40580E491E00E945606EC
:1013100062E088E00E94D40581E591E00E945606D3
:1013200063E081E00E94D40586E591E00E945606C4
:1013300068EB7BE080E090E00E9484030E94C90596
:10134000CE0109969A878987FE013596FC87EB873F
:101350000E94C90560E081E00E94D40586E591E025
:101360000E94560662E085E00E94D40589E691E07D
:101370000E94560660E070E08FEF90E00E94B70395
:1013800060E07FEF80E090E00E94B7036FEF70E0D5
:1013900080E090E00E94B7030E94C90560E081E010
:1013A0000E94D40586E591E00E94560662E083E043
:1013B0000E94D40584E791E00E9456066FEF7FEF0C
:1013C0008FEF90E00E940E0660E070E08FEF90E0FB
:1013D0000E940E0660E07FEF80E090E00E940E0623
:1013E0006FEF70E080E090E00E940E060E94C90559
:1013F00060E081E00E94D40586E591E00E945606F7
:1014000062E086E00E94D40588E891E00E945606DA
:10141000812C912C5401740110E000E020914802CD
:10142000309149020217130768F5B80190E080E097
:10143000CB017727662750E040E00E94E40AC7010D
:10144000820F931F0E9479016D837E838F8398871B
:10145000DE011596ED91F0E0EA57FF4F2491CD01A2
:101460000197FC01208389859A85A817B90791F710
:101470004D815E816F817885C8010E9408010F5FF0
:101480001F4FCCCF0E94B1029FEF991AA90AB90A47
:1014900081149104E5E0AE06B10409F0BCCF0E94CE
:1014A000C90560E081E00E94D40586E591E00E94D4
:1014B000560662E083E00E94D40582E891E00E9433
:1014C000560610E000E01801C12CD12C7601912CB9
:1014D000812C40914A0250914B0270E060E0809173
:1014E0004F02909150020E945F0C26013701540177
:1014F0002091480230914902A216B30668F550E0E7
:1015000040E0C301B2010E94E40AC101820F931FAF
:101510000E94790169837A838B839C83DE01119613
:10152000ED91F0E0EA57FF4F2491CD010197FC01C6
:1015300020838B859C858A179B0791F749815A8167
:101540006B817C81C5010E94080193E0A90EB11C4A
:10155000E3E06E0E711CCCCF0E94B10262E370E03A
:1015600080E090E00E948403FFEF8F1A9F0A8FEFC4
:10157000E81AF80A98E2291A9DEF390AC114D10431
:10158000E3E0EE06F10409F0A4CF0857174F003A44
:10159000FAEA1F0709F097CF80E090E0892B09F461
:1015A000D7CE0E940000D4CE80914F02909150027D
:1015B0000E94D60B80914C0290914D0297FD03C082
:1015C00060E00C945B020895052E97FB1EF40094D6
:1015D0000E94FB0A57FD07D00E94120B07FC03D0A4
:1015E0004EF40C94FB0A50954095309521953F4F51
:1015F0004F4F5F4F089590958095709561957F4FFF
:101600008F4F9F4F0895A29FB001B39FC001A39F2A
:10161000700D811D1124911DB29F700D811D11242B
:10162000911D0895A1E21A2EAA1BBB1BFD010DC03E
:10163000AA1FBB1FEE1FFF1FA217B307E407F50782
:1016400020F0A21BB30BE40BF50B661F771F881F5E
:10165000991F1A9469F760957095809590959B01F4
:10166000AC01BD01CF010895EE0FFF1F0590F4916D
:10167000E02D09940F931F93CF93DF938230910550
:1016800010F482E090E0E0915E02F0915F0230E0C1
:1016900020E0B0E0A0E0309799F42115310509F47D
:1016A0004AC0281B390B24303105D8F58A819B812B
:1016B0006115710589F1FB0193838283FE0111C0DD
:1016C000408151810281138148175907E0F0481782
:1016D000590799F4109761F012960C93129713968C
:1016E0001C933296CF01DF91CF911F910F910895F6
:1016F00000935E0210935F02F4CF2115310551F083
:101700004217530738F0A901DB019A01BD01DF013F
:10171000F801C1CFEF01F9CF90935F0280935E0291
:10172000CDCFFE01E20FF31F819391932250310937
:1017300039832883D7CF20915C0230915D02232B1F
:1017400041F4209102013091030130935D02209316
:101750005C0220910001309101012115310541F415
:101760002DB73EB74091040150910501241B350B64
:10177000E0915C02F0915D02E217F307A0F42E1BEA
:101780003F0B2817390778F0AC014E5F5F4F2417E5
:10179000350748F04E0F5F1F50935D0240935C0287
:1017A000819391939FCFF0E0E0E09CCFCF93DF93C4
:1017B0000097E9F0FC01329713821282A0915E0239
:1017C000B0915F02ED0130E020E01097A1F420819C
:1017D0003181820F931F20915C0230915D022817A6
:1017E000390709F061C0F0935D02E0935C02DF917C
:1017F000CF910895EA01CE17DF07E8F54A815B81B2
:101800009E0141155105B1F7E901FB83EA83499136
:101810005991C40FD51FEC17FD0761F480819181A8
:101820000296840F951FE9019983888382819381B1
:101830009B838A83F0E0E0E012968D919C91139750
:101840000097B9F52D913C911197CD010296820F29
:10185000931F20915C0230915D022817390739F6F9
:10186000309751F510925F0210925E02B0935D02C4
:10187000A0935C02BCCFD383C28340815181840F8B
:10188000951FC817D90761F44E5F5F4F8881998112
:10189000480F591F518340838A819B8193838283A0
:1018A0002115310509F0B0CFF0935F02E0935E029D
:1018B0009ECFFD01DC01C0CF13821282D7CFDC01A5
:1018C00001C06D9341505040E0F7089510E0CDED18
:1018D000D0E004C0FE010E94340B2196CE3DD1071A
:1018E000C9F7F894FFCF00006002800000004000BC
:1018F00014005400000000007F04520496054404C4
:101900004B0448044504000000000806E201960567
:101910009505454E534549474E4520535452414E37
:1019200044544553540042793A204A53422E43527C
:10193000454154494F4E00504F5552004C274241AB
:10194000524151554520412046524544444F0043A1
:101950004F4C4F522057495045005448454154453B
:10196000522043484153450043484153452052418A
:06197000494E424F5700F2
:107E0000112484B714BE81FFF0D085E080938100F7
:107E100082E08093C00088E18093C10086E0809377
:107E2000C20080E18093C4008EE0C9D0259A86E02C
:107E300020E33CEF91E0309385002093840096BBD3
:107E4000B09BFECF1D9AA8958150A9F7CC24DD24C4
:107E500088248394B5E0AB2EA1E19A2EF3E0BF2EE7
:107E6000A2D0813461F49FD0082FAFD0023811F036
:107E7000013811F484E001C083E08DD089C08234E0
:107E800011F484E103C0853419F485E0A6D080C0E4
:107E9000853579F488D0E82EFF2485D0082F10E0AE
:107EA000102F00270E291F29000F111F8ED06801E7
:107EB0006FC0863521F484E090D080E0DECF843638
:107EC00009F040C070D06FD0082F6DD080E0C81688
:107ED00080E7D80618F4F601B7BEE895C0E0D1E017
:107EE00062D089930C17E1F7F0E0CF16F0E7DF06D8
:107EF00018F0F601B7BEE89568D007B600FCFDCFD4
:107F0000A601A0E0B1E02C9130E011968C91119780
:107F100090E0982F8827822B932B1296FA010C0160
:107F200087BEE89511244E5F5F4FF1E0A038BF0790
:107F300051F7F601A7BEE89507B600FCFDCF97BE46
:107F4000E89526C08437B1F42ED02DD0F82E2BD052
:107F50003CD0F601EF2C8F010F5F1F4F84911BD097
:107F6000EA94F801C1F70894C11CD11CFA94CF0C13
:107F7000D11C0EC0853739F428D08EE10CD085E9AC
:107F80000AD08FE07ACF813511F488E018D01DD067
:107F900080E101D065CF982F8091C00085FFFCCF94
:107FA0009093C60008958091C00087FFFCCF809118
:107FB000C00084FD01C0A8958091C6000895E0E648
:107FC000F0E098E1908380830895EDDF803219F02E
:107FD00088E0F5DFFFCF84E1DECF1F93182FE3DFCA
:107FE0001150E9F7F2DF1F91089580E0E8DFEE27F6
:047FF000FF270994CA
:027FFE00040479
:00000001FF
